{
  "contractName": "DreamToken",
  "abi": [
    {
      "inputs": [
        {
          "internalType": "uint256",
          "name": "_factor",
          "type": "uint256"
        }
      ],
      "stateMutability": "nonpayable",
      "type": "constructor"
    },
    {
      "anonymous": false,
      "inputs": [
        {
          "indexed": true,
          "internalType": "address",
          "name": "owner",
          "type": "address"
        },
        {
          "indexed": true,
          "internalType": "address",
          "name": "spender",
          "type": "address"
        },
        {
          "indexed": false,
          "internalType": "uint256",
          "name": "value",
          "type": "uint256"
        }
      ],
      "name": "Approval",
      "type": "event"
    },
    {
      "anonymous": false,
      "inputs": [
        {
          "indexed": false,
          "internalType": "address",
          "name": "buyer",
          "type": "address"
        },
        {
          "indexed": false,
          "internalType": "uint256",
          "name": "amount",
          "type": "uint256"
        }
      ],
      "name": "Bought",
      "type": "event"
    },
    {
      "anonymous": false,
      "inputs": [
        {
          "indexed": false,
          "internalType": "uint256",
          "name": "oldFactor",
          "type": "uint256"
        },
        {
          "indexed": false,
          "internalType": "uint256",
          "name": "newFactor",
          "type": "uint256"
        }
      ],
      "name": "Factor",
      "type": "event"
    },
    {
      "anonymous": false,
      "inputs": [
        {
          "indexed": true,
          "internalType": "address",
          "name": "previousOwner",
          "type": "address"
        },
        {
          "indexed": true,
          "internalType": "address",
          "name": "newOwner",
          "type": "address"
        }
      ],
      "name": "OwnershipTransferred",
      "type": "event"
    },
    {
      "anonymous": false,
      "inputs": [
        {
          "indexed": false,
          "internalType": "address",
          "name": "seller",
          "type": "address"
        },
        {
          "indexed": false,
          "internalType": "uint256",
          "name": "amount",
          "type": "uint256"
        }
      ],
      "name": "Sold",
      "type": "event"
    },
    {
      "anonymous": false,
      "inputs": [
        {
          "indexed": true,
          "internalType": "address",
          "name": "from",
          "type": "address"
        },
        {
          "indexed": true,
          "internalType": "address",
          "name": "to",
          "type": "address"
        },
        {
          "indexed": false,
          "internalType": "uint256",
          "name": "value",
          "type": "uint256"
        }
      ],
      "name": "Transfer",
      "type": "event"
    },
    {
      "stateMutability": "nonpayable",
      "type": "fallback"
    },
    {
      "inputs": [
        {
          "internalType": "address",
          "name": "_tokenOwner",
          "type": "address"
        },
        {
          "internalType": "address",
          "name": "_spender",
          "type": "address"
        }
      ],
      "name": "allowance",
      "outputs": [
        {
          "internalType": "uint256",
          "name": "",
          "type": "uint256"
        }
      ],
      "stateMutability": "view",
      "type": "function",
      "constant": true
    },
    {
      "inputs": [
        {
          "internalType": "address",
          "name": "_spender",
          "type": "address"
        },
        {
          "internalType": "uint256",
          "name": "_amount",
          "type": "uint256"
        }
      ],
      "name": "approve",
      "outputs": [
        {
          "internalType": "bool",
          "name": "",
          "type": "bool"
        }
      ],
      "stateMutability": "nonpayable",
      "type": "function"
    },
    {
      "inputs": [
        {
          "internalType": "address",
          "name": "_account",
          "type": "address"
        }
      ],
      "name": "balanceOf",
      "outputs": [
        {
          "internalType": "uint256",
          "name": "",
          "type": "uint256"
        }
      ],
      "stateMutability": "view",
      "type": "function",
      "constant": true
    },
    {
      "inputs": [],
      "name": "decimals",
      "outputs": [
        {
          "internalType": "uint8",
          "name": "",
          "type": "uint8"
        }
      ],
      "stateMutability": "pure",
      "type": "function",
      "constant": true
    },
    {
      "inputs": [],
      "name": "factor",
      "outputs": [
        {
          "internalType": "uint256",
          "name": "",
          "type": "uint256"
        }
      ],
      "stateMutability": "view",
      "type": "function",
      "constant": true
    },
    {
      "inputs": [],
      "name": "name",
      "outputs": [
        {
          "internalType": "string",
          "name": "",
          "type": "string"
        }
      ],
      "stateMutability": "view",
      "type": "function",
      "constant": true
    },
    {
      "inputs": [],
      "name": "owner",
      "outputs": [
        {
          "internalType": "address",
          "name": "",
          "type": "address"
        }
      ],
      "stateMutability": "view",
      "type": "function",
      "constant": true
    },
    {
      "inputs": [],
      "name": "renounceOwnership",
      "outputs": [],
      "stateMutability": "nonpayable",
      "type": "function"
    },
    {
      "inputs": [],
      "name": "symbol",
      "outputs": [
        {
          "internalType": "string",
          "name": "",
          "type": "string"
        }
      ],
      "stateMutability": "view",
      "type": "function",
      "constant": true
    },
    {
      "inputs": [],
      "name": "totalSupply",
      "outputs": [
        {
          "internalType": "uint256",
          "name": "",
          "type": "uint256"
        }
      ],
      "stateMutability": "view",
      "type": "function",
      "constant": true
    },
    {
      "inputs": [
        {
          "internalType": "address",
          "name": "_to",
          "type": "address"
        },
        {
          "internalType": "uint256",
          "name": "_amount",
          "type": "uint256"
        }
      ],
      "name": "transfer",
      "outputs": [
        {
          "internalType": "bool",
          "name": "",
          "type": "bool"
        }
      ],
      "stateMutability": "nonpayable",
      "type": "function"
    },
    {
      "inputs": [
        {
          "internalType": "address",
          "name": "_from",
          "type": "address"
        },
        {
          "internalType": "address",
          "name": "_to",
          "type": "address"
        },
        {
          "internalType": "uint256",
          "name": "_amount",
          "type": "uint256"
        }
      ],
      "name": "transferFrom",
      "outputs": [
        {
          "internalType": "bool",
          "name": "",
          "type": "bool"
        }
      ],
      "stateMutability": "nonpayable",
      "type": "function"
    },
    {
      "inputs": [
        {
          "internalType": "address",
          "name": "newOwner",
          "type": "address"
        }
      ],
      "name": "transferOwnership",
      "outputs": [],
      "stateMutability": "nonpayable",
      "type": "function"
    },
    {
      "stateMutability": "payable",
      "type": "receive",
      "payable": true
    },
    {
      "inputs": [
        {
          "internalType": "uint256",
          "name": "_factor",
          "type": "uint256"
        }
      ],
      "name": "setFactor",
      "outputs": [],
      "stateMutability": "nonpayable",
      "type": "function"
    },
    {
      "inputs": [
        {
          "internalType": "uint256",
          "name": "_amount",
          "type": "uint256"
        }
      ],
      "name": "buy",
      "outputs": [
        {
          "internalType": "bool",
          "name": "",
          "type": "bool"
        }
      ],
      "stateMutability": "payable",
      "type": "function",
      "payable": true
    },
    {
      "inputs": [
        {
          "internalType": "uint256",
          "name": "_amount",
          "type": "uint256"
        }
      ],
      "name": "sell",
      "outputs": [
        {
          "internalType": "bool",
          "name": "",
          "type": "bool"
        }
      ],
      "stateMutability": "payable",
      "type": "function",
      "payable": true
    }
  ],
  "bytecode": "0x60806040523480156200001157600080fd5b50604051620024f1380380620024f1833981810160405281019062000037919062000522565b6040518060400160405280600a81526020017f447265616d546f6b656e000000000000000000000000000000000000000000008152506040518060400160405280600281526020017f44540000000000000000000000000000000000000000000000000000000000008152508160019080519060200190620000bb92919062000432565b508060029080519060200190620000d492919062000432565b50505033600560006101000a81548173ffffffffffffffffffffffffffffffffffffffff021916908373ffffffffffffffffffffffffffffffffffffffff160217905550600560009054906101000a900473ffffffffffffffffffffffffffffffffffffffff1673ffffffffffffffffffffffffffffffffffffffff16600073ffffffffffffffffffffffffffffffffffffffff167f8be0079c531659141344cd1fd0a4f28419497f9722a3daafe3b4186f6b6457e060405160405180910390a3620001e3620001a9620001fb60201b60201c565b620001b96200022560201b60201c565b600a620001c79190620006e4565b620f4240620001d7919062000735565b6200022e60201b60201c565b620001f4816200030c60201b60201c565b50620009a7565b6000600560009054906101000a900473ffffffffffffffffffffffffffffffffffffffff16905090565b60006012905090565b8060008082825462000241919062000796565b9250508190555080600360008473ffffffffffffffffffffffffffffffffffffffff1673ffffffffffffffffffffffffffffffffffffffff168152602001908152602001600020600082825462000299919062000796565b925050819055508173ffffffffffffffffffffffffffffffffffffffff16600073ffffffffffffffffffffffffffffffffffffffff167fddf252ad1be2c89b69c2b068fc378daa952ba7f163c4a11628f55a4df523b3ef8360405162000300919062000804565b60405180910390a35050565b600560009054906101000a900473ffffffffffffffffffffffffffffffffffffffff1673ffffffffffffffffffffffffffffffffffffffff163373ffffffffffffffffffffffffffffffffffffffff16146200039f576040517f08c379a0000000000000000000000000000000000000000000000000000000008152600401620003969062000882565b60405180910390fd5b60008103620003e5576040517f08c379a0000000000000000000000000000000000000000000000000000000008152600401620003dc90620008f4565b60405180910390fd5b60006006549050816006819055507fc0f5639b64ae1011d357545623cec3f19501c6d23befb68716ed9e2e0a0193e781836040516200042692919062000916565b60405180910390a15050565b828054620004409062000972565b90600052602060002090601f016020900481019282620004645760008555620004b0565b82601f106200047f57805160ff1916838001178555620004b0565b82800160010185558215620004b0579182015b82811115620004af57825182559160200191906001019062000492565b5b509050620004bf9190620004c3565b5090565b5b80821115620004de576000816000905550600101620004c4565b5090565b600080fd5b6000819050919050565b620004fc81620004e7565b81146200050857600080fd5b50565b6000815190506200051c81620004f1565b92915050565b6000602082840312156200053b576200053a620004e2565b5b60006200054b848285016200050b565b91505092915050565b7f4e487b7100000000000000000000000000000000000000000000000000000000600052601160045260246000fd5b60008160011c9050919050565b6000808291508390505b6001851115620005e257808604811115620005ba57620005b962000554565b5b6001851615620005ca5780820291505b8081029050620005da8562000583565b94506200059a565b94509492505050565b600082620005fd5760019050620006d0565b816200060d5760009050620006d0565b8160018114620006265760028114620006315762000667565b6001915050620006d0565b60ff84111562000646576200064562000554565b5b8360020a91508482111562000660576200065f62000554565b5b50620006d0565b5060208310610133831016604e8410600b8410161715620006a15782820a9050838111156200069b576200069a62000554565b5b620006d0565b620006b0848484600162000590565b92509050818404811115620006ca57620006c962000554565b5b81810290505b9392505050565b600060ff82169050919050565b6000620006f182620004e7565b9150620006fe83620006d7565b92506200072d7fffffffffffffffffffffffffffffffffffffffffffffffffffffffffffffffff8484620005eb565b905092915050565b60006200074282620004e7565b91506200074f83620004e7565b9250817fffffffffffffffffffffffffffffffffffffffffffffffffffffffffffffffff04831182151516156200078b576200078a62000554565b5b828202905092915050565b6000620007a382620004e7565b9150620007b083620004e7565b9250827fffffffffffffffffffffffffffffffffffffffffffffffffffffffffffffffff03821115620007e857620007e762000554565b5b828201905092915050565b620007fe81620004e7565b82525050565b60006020820190506200081b6000830184620007f3565b92915050565b600082825260208201905092915050565b7f596f7520617265206e6f74206f776e6572000000000000000000000000000000600082015250565b60006200086a60118362000821565b9150620008778262000832565b602082019050919050565b600060208201905081810360008301526200089d816200085b565b9050919050565b7f466163746f722063616e277420657175616c73207a65726f0000000000000000600082015250565b6000620008dc60188362000821565b9150620008e982620008a4565b602082019050919050565b600060208201905081810360008301526200090f81620008cd565b9050919050565b60006040820190506200092d6000830185620007f3565b6200093c6020830184620007f3565b9392505050565b7f4e487b7100000000000000000000000000000000000000000000000000000000600052602260045260246000fd5b600060028204905060018216806200098b57607f821691505b602082108103620009a157620009a062000943565b5b50919050565b611b3a80620009b76000396000f3fe6080604052600436106100f75760003560e01c8063817e9d311161008a578063d96a094a11610059578063d96a094a14610392578063dd62ed3e146103c2578063e4849b32146103ff578063f2fde38b1461042f57610114565b8063817e9d31146102d65780638da5cb5b146102ff57806395d89b411461032a578063a9059cbb1461035557610114565b8063313ce567116100c6578063313ce5671461022c57806354f703f81461025757806370a0823114610282578063715018a6146102bf57610114565b806306fdde031461015c578063095ea7b31461018757806318160ddd146101c457806323b872dd146101ef57610114565b36610114576101126006543461010d91906112eb565b610458565b005b34801561012057600080fd5b506040517f08c379a000000000000000000000000000000000000000000000000000000000815260040161015390611379565b60405180910390fd5b34801561016857600080fd5b506101716105d3565b60405161017e9190611421565b60405180910390f35b34801561019357600080fd5b506101ae60048036038101906101a991906114d2565b610665565b6040516101bb919061152d565b60405180910390f35b3480156101d057600080fd5b506101d9610757565b6040516101e69190611557565b60405180910390f35b3480156101fb57600080fd5b5061021660048036038101906102119190611572565b610760565b604051610223919061152d565b60405180910390f35b34801561023857600080fd5b506102416108e0565b60405161024e91906115e1565b60405180910390f35b34801561026357600080fd5b5061026c6108e9565b6040516102799190611557565b60405180910390f35b34801561028e57600080fd5b506102a960048036038101906102a491906115fc565b6108ef565b6040516102b69190611557565b60405180910390f35b3480156102cb57600080fd5b506102d4610938565b005b3480156102e257600080fd5b506102fd60048036038101906102f89190611629565b6109d4565b005b34801561030b57600080fd5b50610314610af2565b6040516103219190611665565b60405180910390f35b34801561033657600080fd5b5061033f610b1c565b60405161034c9190611421565b60405180910390f35b34801561036157600080fd5b5061037c600480360381019061037791906114d2565b610bae565b604051610389919061152d565b60405180910390f35b6103ac60048036038101906103a79190611629565b610458565b6040516103b9919061152d565b60405180910390f35b3480156103ce57600080fd5b506103e960048036038101906103e49190611680565b610c11565b6040516103f69190611557565b60405180910390f35b61041960048036038101906104149190611629565b610c98565b604051610426919061152d565b60405180910390f35b34801561043b57600080fd5b50610456600480360381019061045191906115fc565b610de5565b005b600061046a610465610af2565b6108ef565b82106104ab576040517f08c379a00000000000000000000000000000000000000000000000000000000081526004016104a29061170c565b60405180910390fd5b600654826104b9919061172c565b3410156104fb576040517f08c379a00000000000000000000000000000000000000000000000000000000081526004016104f2906117f8565b60405180910390fd5b6105053383610f3b565b610516610510610af2565b83611013565b60065482610524919061172c565b3411156105915760006006548361053b919061172c565b346105469190611818565b90503373ffffffffffffffffffffffffffffffffffffffff166108fc829081150290604051600060405180830381858888f1935050505015801561058e573d6000803e3d6000fd5b50505b7fc55650ccda1011e1cdc769b1fbf546ebb8c97800b6072b49e06cd560305b1d6733836040516105c292919061184c565b60405180910390a160019050919050565b6060600180546105e2906118a4565b80601f016020809104026020016040519081016040528092919081815260200182805461060e906118a4565b801561065b5780601f106106305761010080835404028352916020019161065b565b820191906000526020600020905b81548152906001019060200180831161063e57829003601f168201915b5050505050905090565b600081600460003373ffffffffffffffffffffffffffffffffffffffff1673ffffffffffffffffffffffffffffffffffffffff16815260200190815260200160002060008573ffffffffffffffffffffffffffffffffffffffff1673ffffffffffffffffffffffffffffffffffffffff168152602001908152602001600020819055508273ffffffffffffffffffffffffffffffffffffffff163373ffffffffffffffffffffffffffffffffffffffff167f8c5be1e5ebec7d5bd14f71427d1e84f3dd0314c0f7b2291e5b200ac8c7c3b925846040516107459190611557565b60405180910390a36001905092915050565b60008054905090565b600081600360008673ffffffffffffffffffffffffffffffffffffffff1673ffffffffffffffffffffffffffffffffffffffff1681526020019081526020016000205410156107ae57600080fd5b81600460008673ffffffffffffffffffffffffffffffffffffffff1673ffffffffffffffffffffffffffffffffffffffff16815260200190815260200160002060003373ffffffffffffffffffffffffffffffffffffffff1673ffffffffffffffffffffffffffffffffffffffff16815260200190815260200160002054101561083757600080fd5b81600460008673ffffffffffffffffffffffffffffffffffffffff1673ffffffffffffffffffffffffffffffffffffffff16815260200190815260200160002060003373ffffffffffffffffffffffffffffffffffffffff1673ffffffffffffffffffffffffffffffffffffffff16815260200190815260200160002060008282546108c39190611818565b925050819055506108d584848461116d565b600190509392505050565b60006012905090565b60065481565b6000600360008373ffffffffffffffffffffffffffffffffffffffff1673ffffffffffffffffffffffffffffffffffffffff168152602001908152602001600020549050919050565b600560009054906101000a900473ffffffffffffffffffffffffffffffffffffffff1673ffffffffffffffffffffffffffffffffffffffff163373ffffffffffffffffffffffffffffffffffffffff16146109c8576040517f08c379a00000000000000000000000000000000000000000000000000000000081526004016109bf90611921565b60405180910390fd5b6109d26000610de5565b565b600560009054906101000a900473ffffffffffffffffffffffffffffffffffffffff1673ffffffffffffffffffffffffffffffffffffffff163373ffffffffffffffffffffffffffffffffffffffff1614610a64576040517f08c379a0000000000000000000000000000000000000000000000000000000008152600401610a5b90611921565b60405180910390fd5b60008103610aa7576040517f08c379a0000000000000000000000000000000000000000000000000000000008152600401610a9e9061198d565b60405180910390fd5b60006006549050816006819055507fc0f5639b64ae1011d357545623cec3f19501c6d23befb68716ed9e2e0a0193e78183604051610ae69291906119ad565b60405180910390a15050565b6000600560009054906101000a900473ffffffffffffffffffffffffffffffffffffffff16905090565b606060028054610b2b906118a4565b80601f0160208091040260200160405190810160405280929190818152602001828054610b57906118a4565b8015610ba45780601f10610b7957610100808354040283529160200191610ba4565b820191906000526020600020905b815481529060010190602001808311610b8757829003601f168201915b5050505050905090565b600081600360003373ffffffffffffffffffffffffffffffffffffffff1673ffffffffffffffffffffffffffffffffffffffff168152602001908152602001600020541015610bfc57600080fd5b610c0733848461116d565b6001905092915050565b6000600460008473ffffffffffffffffffffffffffffffffffffffff1673ffffffffffffffffffffffffffffffffffffffff16815260200190815260200160002060008373ffffffffffffffffffffffffffffffffffffffff1673ffffffffffffffffffffffffffffffffffffffff16815260200190815260200160002054905092915050565b600081610ca4336108ef565b1015610ce5576040517f08c379a0000000000000000000000000000000000000000000000000000000008152600401610cdc90611a22565b60405180910390fd5b60065482610cf3919061172c565b4711610d34576040517f08c379a0000000000000000000000000000000000000000000000000000000008152600401610d2b906117f8565b60405180910390fd5b3373ffffffffffffffffffffffffffffffffffffffff166108fc60065484610d5c919061172c565b9081150290604051600060405180830381858888f19350505050158015610d87573d6000803e3d6000fd5b50610d99610d93610af2565b83610f3b565b610da33383611013565b7fae92ab4b6f8f401ead768d3273e6bb937a13e39827d19c6376e8fd4512a05d9a3383604051610dd492919061184c565b60405180910390a160019050919050565b600560009054906101000a900473ffffffffffffffffffffffffffffffffffffffff1673ffffffffffffffffffffffffffffffffffffffff163373ffffffffffffffffffffffffffffffffffffffff1614610e75576040517f08c379a0000000000000000000000000000000000000000000000000000000008152600401610e6c90611921565b60405180910390fd5b6000600560009054906101000a900473ffffffffffffffffffffffffffffffffffffffff16905081600560006101000a81548173ffffffffffffffffffffffffffffffffffffffff021916908373ffffffffffffffffffffffffffffffffffffffff1602179055508173ffffffffffffffffffffffffffffffffffffffff168173ffffffffffffffffffffffffffffffffffffffff167f8be0079c531659141344cd1fd0a4f28419497f9722a3daafe3b4186f6b6457e060405160405180910390a35050565b80600080828254610f4c9190611a42565b9250508190555080600360008473ffffffffffffffffffffffffffffffffffffffff1673ffffffffffffffffffffffffffffffffffffffff1681526020019081526020016000206000828254610fa29190611a42565b925050819055508173ffffffffffffffffffffffffffffffffffffffff16600073ffffffffffffffffffffffffffffffffffffffff167fddf252ad1be2c89b69c2b068fc378daa952ba7f163c4a11628f55a4df523b3ef836040516110079190611557565b60405180910390a35050565b80600360008473ffffffffffffffffffffffffffffffffffffffff1673ffffffffffffffffffffffffffffffffffffffff168152602001908152602001600020541015611095576040517f08c379a000000000000000000000000000000000000000000000000000000000815260040161108c90611ae4565b60405180910390fd5b806000808282546110a69190611818565b9250508190555080600360008473ffffffffffffffffffffffffffffffffffffffff1673ffffffffffffffffffffffffffffffffffffffff16815260200190815260200160002060008282546110fc9190611818565b92505081905550600073ffffffffffffffffffffffffffffffffffffffff168273ffffffffffffffffffffffffffffffffffffffff167fddf252ad1be2c89b69c2b068fc378daa952ba7f163c4a11628f55a4df523b3ef836040516111619190611557565b60405180910390a35050565b80600360008573ffffffffffffffffffffffffffffffffffffffff1673ffffffffffffffffffffffffffffffffffffffff16815260200190815260200160002060008282546111bc9190611818565b9250508190555080600360008473ffffffffffffffffffffffffffffffffffffffff1673ffffffffffffffffffffffffffffffffffffffff16815260200190815260200160002060008282546112129190611a42565b925050819055508173ffffffffffffffffffffffffffffffffffffffff168373ffffffffffffffffffffffffffffffffffffffff167fddf252ad1be2c89b69c2b068fc378daa952ba7f163c4a11628f55a4df523b3ef836040516112769190611557565b60405180910390a3505050565b6000819050919050565b7f4e487b7100000000000000000000000000000000000000000000000000000000600052601260045260246000fd5b7f4e487b7100000000000000000000000000000000000000000000000000000000600052601160045260246000fd5b60006112f682611283565b915061130183611283565b9250826113115761131061128d565b5b828204905092915050565b600082825260208201905092915050565b7f46756e6374696f6e206973206e6f7420616c6c6f776564000000000000000000600082015250565b600061136360178361131c565b915061136e8261132d565b602082019050919050565b6000602082019050818103600083015261139281611356565b9050919050565b600081519050919050565b60005b838110156113c25780820151818401526020810190506113a7565b838111156113d1576000848401525b50505050565b6000601f19601f8301169050919050565b60006113f382611399565b6113fd818561131c565b935061140d8185602086016113a4565b611416816113d7565b840191505092915050565b6000602082019050818103600083015261143b81846113e8565b905092915050565b600080fd5b600073ffffffffffffffffffffffffffffffffffffffff82169050919050565b600061147382611448565b9050919050565b61148381611468565b811461148e57600080fd5b50565b6000813590506114a08161147a565b92915050565b6114af81611283565b81146114ba57600080fd5b50565b6000813590506114cc816114a6565b92915050565b600080604083850312156114e9576114e8611443565b5b60006114f785828601611491565b9250506020611508858286016114bd565b9150509250929050565b60008115159050919050565b61152781611512565b82525050565b6000602082019050611542600083018461151e565b92915050565b61155181611283565b82525050565b600060208201905061156c6000830184611548565b92915050565b60008060006060848603121561158b5761158a611443565b5b600061159986828701611491565b93505060206115aa86828701611491565b92505060406115bb868287016114bd565b9150509250925092565b600060ff82169050919050565b6115db816115c5565b82525050565b60006020820190506115f660008301846115d2565b92915050565b60006020828403121561161257611611611443565b5b600061162084828501611491565b91505092915050565b60006020828403121561163f5761163e611443565b5b600061164d848285016114bd565b91505092915050565b61165f81611468565b82525050565b600060208201905061167a6000830184611656565b92915050565b6000806040838503121561169757611696611443565b5b60006116a585828601611491565b92505060206116b685828601611491565b9150509250929050565b7f4e6f7420656e6f75676820746f6b656e7320696e2062616e6b00000000000000600082015250565b60006116f660198361131c565b9150611701826116c0565b602082019050919050565b60006020820190508181036000830152611725816116e9565b9050919050565b600061173782611283565b915061174283611283565b9250817fffffffffffffffffffffffffffffffffffffffffffffffffffffffffffffffff048311821515161561177b5761177a6112bc565b5b828202905092915050565b7f4e6f7420656e6f7567682066756e647320746f2062757920796f757220616d6f60008201527f756e74206f6620746f6b656e7300000000000000000000000000000000000000602082015250565b60006117e2602d8361131c565b91506117ed82611786565b604082019050919050565b60006020820190508181036000830152611811816117d5565b9050919050565b600061182382611283565b915061182e83611283565b925082821015611841576118406112bc565b5b828203905092915050565b60006040820190506118616000830185611656565b61186e6020830184611548565b9392505050565b7f4e487b7100000000000000000000000000000000000000000000000000000000600052602260045260246000fd5b600060028204905060018216806118bc57607f821691505b6020821081036118cf576118ce611875565b5b50919050565b7f596f7520617265206e6f74206f776e6572000000000000000000000000000000600082015250565b600061190b60118361131c565b9150611916826118d5565b602082019050919050565b6000602082019050818103600083015261193a816118fe565b9050919050565b7f466163746f722063616e277420657175616c73207a65726f0000000000000000600082015250565b600061197760188361131c565b915061198282611941565b602082019050919050565b600060208201905081810360008301526119a68161196a565b9050919050565b60006040820190506119c26000830185611548565b6119cf6020830184611548565b9392505050565b7f4e6f7420656e6f75676820746f6b656e7320746f2073656c6c00000000000000600082015250565b6000611a0c60198361131c565b9150611a17826119d6565b602082019050919050565b60006020820190508181036000830152611a3b816119ff565b9050919050565b6000611a4d82611283565b9150611a5883611283565b9250827fffffffffffffffffffffffffffffffffffffffffffffffffffffffffffffffff03821115611a8d57611a8c6112bc565b5b828201905092915050565b7f4275726e20616d6f756e7420657863656564732062616c616e63650000000000600082015250565b6000611ace601b8361131c565b9150611ad982611a98565b602082019050919050565b60006020820190508181036000830152611afd81611ac1565b905091905056fea2646970667358221220fdb378e522cd83a0a00df811183a705038e7a2ab94e11df6be483381eaecc58064736f6c634300080d0033",
  "immutableReferences": {},
  "source": "// SPDX-License-Identifier: MIT\r\npragma solidity >=0.8.0 <0.9.0;\r\n\r\nimport \"./Token.sol\";\r\nimport \"./Ownable.sol\";\r\n\r\ncontract DreamToken is Token, Ownable{\r\n    \r\n    uint public factor;\r\n    \r\n    event Bought(address buyer, uint amount);\r\n    event Sold(address seller, uint amount);\r\n    event Factor(uint oldFactor, uint newFactor);\r\n\r\n    constructor(uint _factor) Token(\"DreamToken\", \"DT\") {\r\n        _mint(owner(), 1000*1000*10**decimals());\r\n        setFactor(_factor);\r\n    }\r\n\r\n    function setFactor(uint _factor) public onlyOwner{\r\n        require(_factor != 0, \"Factor can't equals zero\");\r\n        uint oldFactor = factor;\r\n        factor = _factor;\r\n        emit Factor(oldFactor, _factor);\r\n    }\r\n\r\n    function buy(uint _amount) public payable returns(bool){\r\n        require(_amount < balanceOf(owner()), \"Not enough tokens in bank\");\r\n        require(msg.value >= _amount*factor, \"Not enough funds to buy your amount of tokens\");\r\n\r\n        _mint(msg.sender, _amount);\r\n        _burn(owner(), _amount);\r\n        \r\n        if(msg.value > _amount*factor){\r\n            uint change = msg.value - _amount*factor;\r\n            payable(msg.sender).transfer(change);\r\n        }\r\n\r\n        emit Bought(msg.sender, _amount);\r\n        return true;\r\n    }\r\n\r\n    function sell(uint _amount) public payable returns(bool){\r\n        require(balanceOf(msg.sender) >= _amount, \"Not enough tokens to sell\");\r\n        require(address(this).balance > _amount*factor, \"Not enough funds to buy your amount of tokens\");\r\n        \r\n        payable(msg.sender).transfer(_amount*factor);\r\n\r\n        _mint(owner(), _amount);\r\n        _burn(msg.sender, _amount);\r\n        \r\n        emit Sold(msg.sender, _amount);\r\n        return true;\r\n    }\r\n\r\n    receive() external payable {\r\n        buy(msg.value / factor);\r\n    } \r\n\r\n    fallback() external {\r\n        revert(\"Function is not allowed\");\r\n    }\r\n}",
  "sourcePath": "D:\\Desktop\\blockchainProj\\dream-token-app\\contracts\\DreamTokenContract.sol",
  "compiler": {
    "name": "solc",
    "version": "0.8.13+commit.abaa5c0e.Emscripten.clang"
  },
  "schemaVersion": "3.4.7",
  "updatedAt": "2022-08-19T13:41:26.170Z",
  "networkType": "ethereum",
  "devdoc": {
    "kind": "dev",
    "methods": {},
    "version": 1
  },
  "userdoc": {
    "kind": "user",
    "methods": {},
    "version": 1
  }
}